{
  "_format": "hh-sol-artifact-1",
  "contractName": "Domains",
  "sourceName": "contracts/Domains.sol",
  "abi": [
    {
      "inputs": [
        {
          "internalType": "string",
          "name": "_tld",
          "type": "string"
        }
      ],
      "stateMutability": "payable",
      "type": "constructor"
    },
    {
      "inputs": [],
      "name": "AlreadyRegistered",
      "type": "error"
    },
    {
      "inputs": [
        {
          "internalType": "string",
          "name": "name",
          "type": "string"
        }
      ],
      "name": "InvalidName",
      "type": "error"
    },
    {
      "inputs": [],
      "name": "Unauthorized",
      "type": "error"
    },
    {
      "anonymous": false,
      "inputs": [
        {
          "indexed": true,
          "internalType": "address",
          "name": "owner",
          "type": "address"
        },
        {
          "indexed": true,
          "internalType": "address",
          "name": "approved",
          "type": "address"
        },
        {
          "indexed": true,
          "internalType": "uint256",
          "name": "tokenId",
          "type": "uint256"
        }
      ],
      "name": "Approval",
      "type": "event"
    },
    {
      "anonymous": false,
      "inputs": [
        {
          "indexed": true,
          "internalType": "address",
          "name": "owner",
          "type": "address"
        },
        {
          "indexed": true,
          "internalType": "address",
          "name": "operator",
          "type": "address"
        },
        {
          "indexed": false,
          "internalType": "bool",
          "name": "approved",
          "type": "bool"
        }
      ],
      "name": "ApprovalForAll",
      "type": "event"
    },
    {
      "anonymous": false,
      "inputs": [
        {
          "indexed": true,
          "internalType": "address",
          "name": "from",
          "type": "address"
        },
        {
          "indexed": true,
          "internalType": "address",
          "name": "to",
          "type": "address"
        },
        {
          "indexed": true,
          "internalType": "uint256",
          "name": "tokenId",
          "type": "uint256"
        }
      ],
      "name": "Transfer",
      "type": "event"
    },
    {
      "inputs": [
        {
          "internalType": "address",
          "name": "to",
          "type": "address"
        },
        {
          "internalType": "uint256",
          "name": "tokenId",
          "type": "uint256"
        }
      ],
      "name": "approve",
      "outputs": [],
      "stateMutability": "nonpayable",
      "type": "function"
    },
    {
      "inputs": [
        {
          "internalType": "address",
          "name": "owner",
          "type": "address"
        }
      ],
      "name": "balanceOf",
      "outputs": [
        {
          "internalType": "uint256",
          "name": "",
          "type": "uint256"
        }
      ],
      "stateMutability": "view",
      "type": "function"
    },
    {
      "inputs": [
        {
          "internalType": "string",
          "name": "",
          "type": "string"
        }
      ],
      "name": "domains",
      "outputs": [
        {
          "internalType": "address",
          "name": "",
          "type": "address"
        }
      ],
      "stateMutability": "view",
      "type": "function"
    },
    {
      "inputs": [
        {
          "internalType": "string",
          "name": "name",
          "type": "string"
        }
      ],
      "name": "getAddress",
      "outputs": [
        {
          "internalType": "address",
          "name": "",
          "type": "address"
        }
      ],
      "stateMutability": "view",
      "type": "function"
    },
    {
      "inputs": [],
      "name": "getAllData",
      "outputs": [
        {
          "internalType": "string[]",
          "name": "",
          "type": "string[]"
        }
      ],
      "stateMutability": "view",
      "type": "function"
    },
    {
      "inputs": [
        {
          "internalType": "address",
          "name": "addr_",
          "type": "address"
        }
      ],
      "name": "getAllDataOfAddress",
      "outputs": [
        {
          "internalType": "string[]",
          "name": "",
          "type": "string[]"
        }
      ],
      "stateMutability": "view",
      "type": "function"
    },
    {
      "inputs": [],
      "name": "getAllNamesCount",
      "outputs": [
        {
          "internalType": "uint256",
          "name": "",
          "type": "uint256"
        }
      ],
      "stateMutability": "view",
      "type": "function"
    },
    {
      "inputs": [
        {
          "internalType": "address",
          "name": "addr_",
          "type": "address"
        }
      ],
      "name": "getAllNamesOfAddressCount",
      "outputs": [
        {
          "internalType": "uint256",
          "name": "",
          "type": "uint256"
        }
      ],
      "stateMutability": "view",
      "type": "function"
    },
    {
      "inputs": [
        {
          "internalType": "uint256",
          "name": "tokenId",
          "type": "uint256"
        }
      ],
      "name": "getApproved",
      "outputs": [
        {
          "internalType": "address",
          "name": "",
          "type": "address"
        }
      ],
      "stateMutability": "view",
      "type": "function"
    },
    {
      "inputs": [
        {
          "internalType": "string",
          "name": "name",
          "type": "string"
        }
      ],
      "name": "getRecord",
      "outputs": [
        {
          "internalType": "string",
          "name": "",
          "type": "string"
        }
      ],
      "stateMutability": "view",
      "type": "function"
    },
    {
      "inputs": [
        {
          "internalType": "address",
          "name": "owner",
          "type": "address"
        },
        {
          "internalType": "address",
          "name": "operator",
          "type": "address"
        }
      ],
      "name": "isApprovedForAll",
      "outputs": [
        {
          "internalType": "bool",
          "name": "",
          "type": "bool"
        }
      ],
      "stateMutability": "view",
      "type": "function"
    },
    {
      "inputs": [
        {
          "internalType": "string",
          "name": "name_",
          "type": "string"
        }
      ],
      "name": "isNameAlreadyRegistered",
      "outputs": [
        {
          "internalType": "bool",
          "name": "",
          "type": "bool"
        }
      ],
      "stateMutability": "view",
      "type": "function"
    },
    {
      "inputs": [],
      "name": "isOwner",
      "outputs": [
        {
          "internalType": "bool",
          "name": "",
          "type": "bool"
        }
      ],
      "stateMutability": "view",
      "type": "function"
    },
    {
      "inputs": [],
      "name": "name",
      "outputs": [
        {
          "internalType": "string",
          "name": "",
          "type": "string"
        }
      ],
      "stateMutability": "view",
      "type": "function"
    },
    {
      "inputs": [
        {
          "internalType": "uint256",
          "name": "",
          "type": "uint256"
        }
      ],
      "name": "names",
      "outputs": [
        {
          "internalType": "string",
          "name": "",
          "type": "string"
        }
      ],
      "stateMutability": "view",
      "type": "function"
    },
    {
      "inputs": [],
      "name": "owner",
      "outputs": [
        {
          "internalType": "address payable",
          "name": "",
          "type": "address"
        }
      ],
      "stateMutability": "view",
      "type": "function"
    },
    {
      "inputs": [
        {
          "internalType": "uint256",
          "name": "tokenId",
          "type": "uint256"
        }
      ],
      "name": "ownerOf",
      "outputs": [
        {
          "internalType": "address",
          "name": "",
          "type": "address"
        }
      ],
      "stateMutability": "view",
      "type": "function"
    },
    {
      "inputs": [
        {
          "internalType": "string",
          "name": "name",
          "type": "string"
        }
      ],
      "name": "price",
      "outputs": [
        {
          "internalType": "uint256",
          "name": "",
          "type": "uint256"
        }
      ],
      "stateMutability": "pure",
      "type": "function"
    },
    {
      "inputs": [
        {
          "internalType": "string",
          "name": "",
          "type": "string"
        }
      ],
      "name": "records",
      "outputs": [
        {
          "internalType": "string",
          "name": "",
          "type": "string"
        }
      ],
      "stateMutability": "view",
      "type": "function"
    },
    {
      "inputs": [
        {
          "internalType": "string",
          "name": "name",
          "type": "string"
        },
        {
          "internalType": "string",
          "name": "record",
          "type": "string"
        }
      ],
      "name": "registers",
      "outputs": [],
      "stateMutability": "payable",
      "type": "function"
    },
    {
      "inputs": [
        {
          "internalType": "address",
          "name": "from",
          "type": "address"
        },
        {
          "internalType": "address",
          "name": "to",
          "type": "address"
        },
        {
          "internalType": "uint256",
          "name": "tokenId",
          "type": "uint256"
        }
      ],
      "name": "safeTransferFrom",
      "outputs": [],
      "stateMutability": "nonpayable",
      "type": "function"
    },
    {
      "inputs": [
        {
          "internalType": "address",
          "name": "from",
          "type": "address"
        },
        {
          "internalType": "address",
          "name": "to",
          "type": "address"
        },
        {
          "internalType": "uint256",
          "name": "tokenId",
          "type": "uint256"
        },
        {
          "internalType": "bytes",
          "name": "_data",
          "type": "bytes"
        }
      ],
      "name": "safeTransferFrom",
      "outputs": [],
      "stateMutability": "nonpayable",
      "type": "function"
    },
    {
      "inputs": [
        {
          "internalType": "address",
          "name": "operator",
          "type": "address"
        },
        {
          "internalType": "bool",
          "name": "approved",
          "type": "bool"
        }
      ],
      "name": "setApprovalForAll",
      "outputs": [],
      "stateMutability": "nonpayable",
      "type": "function"
    },
    {
      "inputs": [
        {
          "internalType": "string",
          "name": "name",
          "type": "string"
        },
        {
          "internalType": "string",
          "name": "record",
          "type": "string"
        }
      ],
      "name": "setRecord",
      "outputs": [],
      "stateMutability": "nonpayable",
      "type": "function"
    },
    {
      "inputs": [
        {
          "internalType": "bytes4",
          "name": "interfaceId",
          "type": "bytes4"
        }
      ],
      "name": "supportsInterface",
      "outputs": [
        {
          "internalType": "bool",
          "name": "",
          "type": "bool"
        }
      ],
      "stateMutability": "view",
      "type": "function"
    },
    {
      "inputs": [],
      "name": "symbol",
      "outputs": [
        {
          "internalType": "string",
          "name": "",
          "type": "string"
        }
      ],
      "stateMutability": "view",
      "type": "function"
    },
    {
      "inputs": [],
      "name": "tld",
      "outputs": [
        {
          "internalType": "string",
          "name": "",
          "type": "string"
        }
      ],
      "stateMutability": "view",
      "type": "function"
    },
    {
      "inputs": [
        {
          "internalType": "uint256",
          "name": "tokenId",
          "type": "uint256"
        }
      ],
      "name": "tokenURI",
      "outputs": [
        {
          "internalType": "string",
          "name": "",
          "type": "string"
        }
      ],
      "stateMutability": "view",
      "type": "function"
    },
    {
      "inputs": [
        {
          "internalType": "address",
          "name": "from",
          "type": "address"
        },
        {
          "internalType": "address",
          "name": "to",
          "type": "address"
        },
        {
          "internalType": "uint256",
          "name": "tokenId",
          "type": "uint256"
        }
      ],
      "name": "transferFrom",
      "outputs": [],
      "stateMutability": "nonpayable",
      "type": "function"
    },
    {
      "inputs": [
        {
          "internalType": "string",
          "name": "name",
          "type": "string"
        }
      ],
      "name": "valid",
      "outputs": [
        {
          "internalType": "bool",
          "name": "",
          "type": "bool"
        }
      ],
      "stateMutability": "pure",
      "type": "function"
    },
    {
      "inputs": [],
      "name": "withdraw",
      "outputs": [],
      "stateMutability": "nonpayable",
      "type": "function"
    }
  ],
  "bytecode": "0x6105c060405261051f608081815290620036c860a03980516200002b91600d91602090910190620001e8565b5060408051808201909152600d8082526c1e17ba32bc3a1f1e17b9bb339f60991b60209092019182526200006291600e91620001e8565b5060405162003c0b38038062003c0b8339810160408190526200008591620002d7565b60405180606001604052806024815260200162003be76024913960405180604001604052806012815260200171536861726465756d2055736572204e616d6560701b8152508160009080519060200190620000e2929190620001e8565b508051620000f8906001906020840190620001e8565b5050600c80546001600160a01b0319163317905550805162000122906008906020840190620001e8565b506200016f6040518060400160405280601981526020017f2573206e616d65207365727669636573206465706c6f79656400000000000000815250826200017660201b6200180e1760201c565b506200042c565b620001c382826040516024016200018f929190620003bd565b60408051601f198184030181529190526020810180516001600160e01b03908116634b5c427760e01b17909152620001c716565b5050565b80516a636f6e736f6c652e6c6f67602083016000808483855afa5050505050565b828054620001f690620003ef565b90600052602060002090601f0160209004810192826200021a576000855562000265565b82601f106200023557805160ff191683800117855562000265565b8280016001018555821562000265579182015b828111156200026557825182559160200191906001019062000248565b506200027392915062000277565b5090565b5b8082111562000273576000815560010162000278565b634e487b7160e01b600052604160045260246000fd5b60005b83811015620002c1578181015183820152602001620002a7565b83811115620002d1576000848401525b50505050565b600060208284031215620002ea57600080fd5b81516001600160401b03808211156200030257600080fd5b818401915084601f8301126200031757600080fd5b8151818111156200032c576200032c6200028e565b604051601f8201601f19908116603f011681019083821181831017156200035757620003576200028e565b816040528281528760208487010111156200037157600080fd5b62000384836020830160208801620002a4565b979650505050505050565b60008151808452620003a9816020860160208601620002a4565b601f01601f19169290920160200192915050565b604081526000620003d260408301856200038f565b8281036020840152620003e681856200038f565b95945050505050565b600181811c908216806200040457607f821691505b602082108114156200042657634e487b7160e01b600052602260045260246000fd5b50919050565b61328c806200043c6000396000f3fe6080604052600436106101d85760003560e01c806370a0823111610102578063b88d4fde11610095578063c87b56dd11610064578063c87b56dd14610566578063d6f7ae6614610586578063e985e9c5146105a6578063fe2c6198146105ef57600080fd5b8063b88d4fde146104e6578063bf40fac114610506578063c1880a9814610526578063c84e88cc1461054657600080fd5b80639791c097116100d15780639791c0971461047357806399d6f2c6146104935780639cc18a27146104a6578063a22cb465146104c657600080fd5b806370a08231146103fe5780638da5cb5b1461041e5780638f32d59b1461043e57806395d89b411461045e57600080fd5b8063264492351161017a57806342842e0e1161014957806342842e0e1461037e5780634622ab031461039e578063541e771d146103be5780636352211e146103de57600080fd5b806326449235146102f15780632d10fa28146103325780632d551432146103545780633ccfd60b1461036957600080fd5b8063081812fc116101b6578063081812fc14610257578063095ea7b31461028f57806311dd8845146102b157806323b872dd146102d157600080fd5b8063018e29e7146101dd57806301ffc9a71461020557806306fdde0314610235575b600080fd5b3480156101e957600080fd5b506101f261060f565b6040519081526020015b60405180910390f35b34801561021157600080fd5b5061022561022036600461275e565b61061f565b60405190151581526020016101fc565b34801561024157600080fd5b5061024a610671565b6040516101fc91906127d3565b34801561026357600080fd5b506102776102723660046127e6565b610703565b6040516001600160a01b0390911681526020016101fc565b34801561029b57600080fd5b506102af6102aa36600461281b565b610790565b005b3480156102bd57600080fd5b5061024a6102cc36600461288e565b6108a6565b3480156102dd57600080fd5b506102af6102ec3660046128d0565b610959565b3480156102fd57600080fd5b5061027761030c366004612998565b80516020818301810180516009825292820191909301209152546001600160a01b031681565b34801561033e57600080fd5b5061034761098a565b6040516101fc91906129e1565b34801561036057600080fd5b5061024a610ac6565b34801561037557600080fd5b506102af610b54565b34801561038a57600080fd5b506102af6103993660046128d0565b610c02565b3480156103aa57600080fd5b5061024a6103b93660046127e6565b610c1d565b3480156103ca57600080fd5b5061024a6103d9366004612998565b610c36565b3480156103ea57600080fd5b506102776103f93660046127e6565b610c5a565b34801561040a57600080fd5b506101f2610419366004612a43565b610cd1565b34801561042a57600080fd5b50600c54610277906001600160a01b031681565b34801561044a57600080fd5b50600c546001600160a01b03163314610225565b34801561046a57600080fd5b5061024a610d58565b34801561047f57600080fd5b5061022561048e36600461288e565b610d67565b6102af6104a1366004612a5e565b610dfe565b3480156104b257600080fd5b506103476104c1366004612a43565b611226565b3480156104d257600080fd5b506102af6104e1366004612aca565b6113ed565b3480156104f257600080fd5b506102af610501366004612b06565b6113f8565b34801561051257600080fd5b5061027761052136600461288e565b611430565b34801561053257600080fd5b506102af610541366004612a5e565b611465565b34801561055257600080fd5b50610225610561366004612998565b6114e5565b34801561057257600080fd5b5061024a6105813660046127e6565b611574565b34801561059257600080fd5b506101f26105a1366004612a43565b6116eb565b3480156105b257600080fd5b506102256105c1366004612b82565b6001600160a01b03918216600090815260056020908152604080832093909416825291909152205460ff1690565b3480156105fb57600080fd5b506101f261060a36600461288e565b61175b565b600061061a60075490565b905090565b60006001600160e01b031982166380ac58cd60e01b148061065057506001600160e01b03198216635b5e139f60e01b145b8061066b57506301ffc9a760e01b6001600160e01b03198316145b92915050565b60606000805461068090612bb5565b80601f01602080910402602001604051908101604052809291908181526020018280546106ac90612bb5565b80156106f95780601f106106ce576101008083540402835291602001916106f9565b820191906000526020600020905b8154815290600101906020018083116106dc57829003601f168201915b5050505050905090565b600061070e82611853565b6107745760405162461bcd60e51b815260206004820152602c60248201527f4552433732313a20617070726f76656420717565727920666f72206e6f6e657860448201526b34b9ba32b73a103a37b5b2b760a11b60648201526084015b60405180910390fd5b506000908152600460205260409020546001600160a01b031690565b600061079b82610c5a565b9050806001600160a01b0316836001600160a01b031614156108095760405162461bcd60e51b815260206004820152602160248201527f4552433732313a20617070726f76616c20746f2063757272656e74206f776e656044820152603960f91b606482015260840161076b565b336001600160a01b0382161480610825575061082581336105c1565b6108975760405162461bcd60e51b815260206004820152603860248201527f4552433732313a20617070726f76652063616c6c6572206973206e6f74206f7760448201527f6e6572206e6f7220617070726f76656420666f7220616c6c0000000000000000606482015260840161076b565b6108a18383611870565b505050565b6060600a83836040516108ba929190612bea565b908152602001604051809103902080546108d390612bb5565b80601f01602080910402602001604051908101604052809291908181526020018280546108ff90612bb5565b801561094c5780601f106109215761010080835404028352916020019161094c565b820191906000526020600020905b81548152906001019060200180831161092f57829003601f168201915b5050505050905092915050565b61096333826118de565b61097f5760405162461bcd60e51b815260040161076b90612bfa565b6108a18383836119c7565b6060600061099760075490565b67ffffffffffffffff8111156109af576109af61290c565b6040519080825280602002602001820160405280156109e257816020015b60608152602001906001900390816109cd5790505b50905060005b600754811015610ac0576000818152600b6020526040908190209051600a90610a12908390612ce5565b9081526020016040518091039020610a656009600b6000868152602001908152602001600020604051610a459190612ce5565b908152604051908190036020019020546001600160a01b03166014611b63565b610a6e84611cff565b604051602001610a819493929190612cf1565b604051602081830303815290604052828281518110610aa257610aa2612d55565b60200260200101819052508080610ab890612d81565b9150506109e8565b50919050565b60088054610ad390612bb5565b80601f0160208091040260200160405190810160405280929190818152602001828054610aff90612bb5565b8015610b4c5780601f10610b2157610100808354040283529160200191610b4c565b820191906000526020600020905b815481529060010190602001808311610b2f57829003601f168201915b505050505081565b600c546001600160a01b03163314610b6b57600080fd5b6040514790600090339083908381818185875af1925050503d8060008114610baf576040519150601f19603f3d011682016040523d82523d6000602084013e610bb4565b606091505b5050905080610bfe5760405162461bcd60e51b81526020600482015260166024820152756661696c656420746f2077697468647261772053484d60501b604482015260640161076b565b5050565b6108a1838383604051806020016040528060008152506113f8565b600b6020526000908152604090208054610ad390612bb5565b8051602081830181018051600a8252928201919093012091528054610ad390612bb5565b6000818152600260205260408120546001600160a01b03168061066b5760405162461bcd60e51b815260206004820152602960248201527f4552433732313a206f776e657220717565727920666f72206e6f6e657869737460448201526832b73a103a37b5b2b760b91b606482015260840161076b565b60006001600160a01b038216610d3c5760405162461bcd60e51b815260206004820152602a60248201527f4552433732313a2062616c616e636520717565727920666f7220746865207a65604482015269726f206164647265737360b01b606482015260840161076b565b506001600160a01b031660009081526003602052604090205490565b60606001805461068090612bb5565b60006003610daa84848080601f016020809104026020016040519081016040528093929190818152602001838380828437600092019190915250611dfd92505050565b10158015610df75750600c610df484848080601f016020809104026020016040519081016040528093929190818152602001838380828437600092019190915250611dfd92505050565b11155b9392505050565b60006001600160a01b031660098585604051610e1b929190612bea565b908152604051908190036020019020546001600160a01b031614610e5257604051630ea075bf60e21b815260040160405180910390fd5b610e5c8484610d67565b610e7d578383604051637f19f48d60e01b815260040161076b929190612d9c565b6000610e89858561175b565b905080341015610ed15760405162461bcd60e51b81526020600482015260136024820152721b9bdd08195b9bdd59da0814d213481c185a59606a1b604482015260640161076b565b600085856008604051602001610ee993929190612dcb565b60408051601f1981840301815282820190915260058252645f6e616d6560d81b60208301529150610f1a908261180e565b6000600d82600e604051602001610f3393929190612df4565b60405160208183030381529060405290506000610f4f60075490565b90506000610f9289898080601f016020809104026020016040519081016040528093929190818152602001838380828437600092019190915250611dfd92505050565b90506000610f9f82611cff565b9050610ffb6040518060600160405280602e8152602001613177602e91398b8b8080601f016020809104026020016040519081016040528093929190818152602001838380828437600092019190915250889250611f00915050565b60006110318661100a87611f47565b8460405160200161101d93929190612e27565b604051602081830303815290604052611f47565b90506000816040516020016110469190612f13565b60408051601f1981840301815260608301909152603980835290925061107491906131a560208301396120ad565b6110a46040518060400160405280600e81526020016d46696e616c20746f6b656e55524960901b8152508261180e565b6110c56040518060600160405280603981526020016131de603991396120ad565b6110cf33866120f3565b6110d9858261210d565b3360098d8d6040516110ec929190612bea565b908152602001604051809103902060006101000a8154816001600160a01b0302191690836001600160a01b031602179055508989600a8e8e604051611132929190612bea565b90815260405190819003602001902061114c92909161263b565b5061118c6040518060400160405280601981526020017f25732068617320726567697374726564206120646f6d61696e0000000000000081525033612198565b6111f06040518060400160405280600c81526020016b185b990818481c9958dbdc9960a21b8152508b8b8080601f01602080910402602001604051908101604052809392919081815260200183838082843760009201919091525061180e92505050565b6000858152600b60205260409020611209908d8d61263b565b50611218600780546001019055565b505050505050505050505050565b60606000805b600754811015611297576000818152600b602052604090819020905160099161125491612ce5565b908152604051908190036020019020546001600160a01b0385811691161415611285578161128181612d81565b9250505b8061128f81612d81565b91505061122c565b5060008167ffffffffffffffff8111156112b3576112b361290c565b6040519080825280602002602001820160405280156112e657816020015b60608152602001906001900390816112d15790505b50905060005b6007548110156113e5576000818152600b602052604090819020905160099161131491612ce5565b908152604051908190036020019020546001600160a01b03868116911614156113d3576000818152600b6020526040908190209051600a90611357908390612ce5565b908152602001604051809103902061138a6009600b6000868152602001908152602001600020604051610a459190612ce5565b61139384611cff565b6040516020016113a69493929190612cf1565b6040516020818303038152906040528282815181106113c7576113c7612d55565b60200260200101819052505b806113dd81612d81565b9150506112ec565b509392505050565b610bfe3383836121dd565b61140233836118de565b61141e5760405162461bcd60e51b815260040161076b90612bfa565b61142a848484846122ac565b50505050565b600060098383604051611444929190612bea565b908152604051908190036020019020546001600160a01b0316905092915050565b60098484604051611477929190612bea565b90815260405190819003602001902054336001600160a01b03909116146114b0576040516282b42960e81b815260040160405180910390fd5b8181600a86866040516114c4929190612bea565b9081526040519081900360200190206114de92909161263b565b5050505050565b600080805b60075481101561156d576000818152600b60209081526040918290209151611513929101612ce5565b604051602081830303815290604052805190602001208460405160200161153a9190612f58565b60405160208183030381529060405280519060200120141561155b57600191505b8061156581612d81565b9150506114ea565b5092915050565b606061157f82611853565b6115e55760405162461bcd60e51b815260206004820152603160248201527f45524337323155524953746f726167653a2055524920717565727920666f72206044820152703737b732bc34b9ba32b73a103a37b5b2b760791b606482015260840161076b565b600082815260066020526040812080546115fe90612bb5565b80601f016020809104026020016040519081016040528092919081815260200182805461162a90612bb5565b80156116775780601f1061164c57610100808354040283529160200191611677565b820191906000526020600020905b81548152906001019060200180831161165a57829003601f168201915b50505050509050600061169560408051602081019091526000815290565b90508051600014156116a8575092915050565b8151156116da5780826040516020016116c2929190612f74565b60405160208183030381529060405292505050919050565b6116e3846122df565b949350505050565b600080805b60075481101561156d576000818152600b602052604090819020905160099161171891612ce5565b908152604051908190036020019020546001600160a01b0385811691161415611749578161174581612d81565b9250505b8061175381612d81565b9150506116f0565b60008061179d84848080601f016020809104026020016040519081016040528093929190818152602001838380828437600092019190915250611dfd92505050565b9050600281116117ac57600080fd5b80600314156117c7576804e1003b28d928000091505061066b565b80600414156117e2576802b5e3af16b188000091505061066b565b80600514156117fd576801a055690d9db8000091505061066b565b678ac7230489e8000091505061066b565b610bfe8282604051602401611824929190612fa3565b60408051601f198184030181529190526020810180516001600160e01b0316634b5c427760e01b1790526123b6565b6000908152600260205260409020546001600160a01b0316151590565b600081815260046020526040902080546001600160a01b0319166001600160a01b03841690811790915581906118a582610c5a565b6001600160a01b03167f8c5be1e5ebec7d5bd14f71427d1e84f3dd0314c0f7b2291e5b200ac8c7c3b92560405160405180910390a45050565b60006118e982611853565b61194a5760405162461bcd60e51b815260206004820152602c60248201527f4552433732313a206f70657261746f7220717565727920666f72206e6f6e657860448201526b34b9ba32b73a103a37b5b2b760a11b606482015260840161076b565b600061195583610c5a565b9050806001600160a01b0316846001600160a01b0316148061199c57506001600160a01b0380821660009081526005602090815260408083209388168352929052205460ff165b806116e35750836001600160a01b03166119b584610703565b6001600160a01b031614949350505050565b826001600160a01b03166119da82610c5a565b6001600160a01b031614611a3e5760405162461bcd60e51b815260206004820152602560248201527f4552433732313a207472616e736665722066726f6d20696e636f72726563742060448201526437bbb732b960d91b606482015260840161076b565b6001600160a01b038216611aa05760405162461bcd60e51b8152602060048201526024808201527f4552433732313a207472616e7366657220746f20746865207a65726f206164646044820152637265737360e01b606482015260840161076b565b611aab600082611870565b6001600160a01b0383166000908152600360205260408120805460019290611ad4908490612fd1565b90915550506001600160a01b0382166000908152600360205260408120805460019290611b02908490612fe8565b909155505060008181526002602052604080822080546001600160a01b0319166001600160a01b0386811691821790925591518493918716917fddf252ad1be2c89b69c2b068fc378daa952ba7f163c4a11628f55a4df523b3ef91a4505050565b60606000611b72836002613000565b611b7d906002612fe8565b67ffffffffffffffff811115611b9557611b9561290c565b6040519080825280601f01601f191660200182016040528015611bbf576020820181803683370190505b509050600360fc1b81600081518110611bda57611bda612d55565b60200101906001600160f81b031916908160001a905350600f60fb1b81600181518110611c0957611c09612d55565b60200101906001600160f81b031916908160001a9053506000611c2d846002613000565b611c38906001612fe8565b90505b6001811115611cb0576f181899199a1a9b1b9c1cb0b131b232b360811b85600f1660108110611c6c57611c6c612d55565b1a60f81b828281518110611c8257611c82612d55565b60200101906001600160f81b031916908160001a90535060049490941c93611ca98161301f565b9050611c3b565b508315610df75760405162461bcd60e51b815260206004820181905260248201527f537472696e67733a20686578206c656e67746820696e73756666696369656e74604482015260640161076b565b606081611d235750506040805180820190915260018152600360fc1b602082015290565b8160005b8115611d4d5780611d3781612d81565b9150611d469050600a8361304c565b9150611d27565b60008167ffffffffffffffff811115611d6857611d6861290c565b6040519080825280601f01601f191660200182016040528015611d92576020820181803683370190505b5090505b84156116e357611da7600183612fd1565b9150611db4600a86613060565b611dbf906030612fe8565b60f81b818381518110611dd457611dd4612d55565b60200101906001600160f81b031916908160001a905350611df6600a8661304c565b9450611d96565b8051600090819081905b80821015611ef7576000858381518110611e2357611e23612d55565b01602001516001600160f81b0319169050600160ff1b811015611e5257611e4b600184612fe8565b9250611ee4565b600760fd1b6001600160f81b031982161015611e7357611e4b600284612fe8565b600f60fc1b6001600160f81b031982161015611e9457611e4b600384612fe8565b601f60fb1b6001600160f81b031982161015611eb557611e4b600484612fe8565b603f60fa1b6001600160f81b031982161015611ed657611e4b600584612fe8565b611ee1600684612fe8565b92505b5082611eef81612d81565b935050611e07565b50909392505050565b6108a1838383604051602401611f1893929190613074565b60408051601f198184030181529190526020810180516001600160e01b031663f362ca5960e01b1790526123b6565b805160609080611f67575050604080516020810190915260008152919050565b60006003611f76836002612fe8565b611f80919061304c565b611f8b906004613000565b90506000611f9a826020612fe8565b67ffffffffffffffff811115611fb257611fb261290c565b6040519080825280601f01601f191660200182016040528015611fdc576020820181803683370190505b5090506000604051806060016040528060408152602001613217604091399050600181016020830160005b86811015612068576003818a01810151603f601282901c8116860151600c83901c8216870151600684901c831688015192909316870151600891821b60ff94851601821b92841692909201901b91160160e01b835260049092019101612007565b50600386066001811461208257600281146120935761209f565b613d3d60f01b60011983015261209f565b603d60f81b6000198301525b505050918152949350505050565b6120f0816040516024016120c191906127d3565b60408051601f198184030181529190526020810180516001600160e01b031663104c13eb60e21b1790526123b6565b50565b610bfe8282604051806020016040528060008152506123d7565b61211682611853565b6121795760405162461bcd60e51b815260206004820152602e60248201527f45524337323155524953746f726167653a2055524920736574206f66206e6f6e60448201526d32bc34b9ba32b73a103a37b5b2b760911b606482015260840161076b565b600082815260066020908152604090912082516108a1928401906126bf565b610bfe82826040516024016121ae9291906130aa565b60408051601f198184030181529190526020810180516001600160e01b031663319af33360e01b1790526123b6565b816001600160a01b0316836001600160a01b0316141561223f5760405162461bcd60e51b815260206004820152601960248201527f4552433732313a20617070726f766520746f2063616c6c657200000000000000604482015260640161076b565b6001600160a01b03838116600081815260056020908152604080832094871680845294825291829020805460ff191686151590811790915591519182527f17307eab39ab6107e8899845ad3d59bd9653f200f220920489ca2b5937696c31910160405180910390a3505050565b6122b78484846119c7565b6122c38484848461240a565b61142a5760405162461bcd60e51b815260040161076b906130d4565b60606122ea82611853565b61234e5760405162461bcd60e51b815260206004820152602f60248201527f4552433732314d657461646174613a2055524920717565727920666f72206e6f60448201526e3732bc34b9ba32b73a103a37b5b2b760891b606482015260840161076b565b600061236560408051602081019091526000815290565b905060008151116123855760405180602001604052806000815250610df7565b8061238f84611cff565b6040516020016123a0929190612f74565b6040516020818303038152906040529392505050565b80516a636f6e736f6c652e6c6f67602083016000808483855afa5050505050565b6123e18383612508565b6123ee600084848461240a565b6108a15760405162461bcd60e51b815260040161076b906130d4565b60006001600160a01b0384163b156124fd57604051630a85bd0160e11b81526001600160a01b0385169063150b7a029061244e903390899088908890600401613126565b6020604051808303816000875af1925050508015612489575060408051601f3d908101601f1916820190925261248691810190613159565b60015b6124e3573d8080156124b7576040519150601f19603f3d011682016040523d82523d6000602084013e6124bc565b606091505b5080516124db5760405162461bcd60e51b815260040161076b906130d4565b805181602001fd5b6001600160e01b031916630a85bd0160e11b1490506116e3565b506001949350505050565b6001600160a01b03821661255e5760405162461bcd60e51b815260206004820181905260248201527f4552433732313a206d696e7420746f20746865207a65726f2061646472657373604482015260640161076b565b61256781611853565b156125b45760405162461bcd60e51b815260206004820152601c60248201527f4552433732313a20746f6b656e20616c7265616479206d696e74656400000000604482015260640161076b565b6001600160a01b03821660009081526003602052604081208054600192906125dd908490612fe8565b909155505060008181526002602052604080822080546001600160a01b0319166001600160a01b03861690811790915590518392907fddf252ad1be2c89b69c2b068fc378daa952ba7f163c4a11628f55a4df523b3ef908290a45050565b82805461264790612bb5565b90600052602060002090601f01602090048101928261266957600085556126af565b82601f106126825782800160ff198235161785556126af565b828001600101855582156126af579182015b828111156126af578235825591602001919060010190612694565b506126bb929150612733565b5090565b8280546126cb90612bb5565b90600052602060002090601f0160209004810192826126ed57600085556126af565b82601f1061270657805160ff19168380011785556126af565b828001600101855582156126af579182015b828111156126af578251825591602001919060010190612718565b5b808211156126bb5760008155600101612734565b6001600160e01b0319811681146120f057600080fd5b60006020828403121561277057600080fd5b8135610df781612748565b60005b8381101561279657818101518382015260200161277e565b8381111561142a5750506000910152565b600081518084526127bf81602086016020860161277b565b601f01601f19169290920160200192915050565b602081526000610df760208301846127a7565b6000602082840312156127f857600080fd5b5035919050565b80356001600160a01b038116811461281657600080fd5b919050565b6000806040838503121561282e57600080fd5b612837836127ff565b946020939093013593505050565b60008083601f84011261285757600080fd5b50813567ffffffffffffffff81111561286f57600080fd5b60208301915083602082850101111561288757600080fd5b9250929050565b600080602083850312156128a157600080fd5b823567ffffffffffffffff8111156128b857600080fd5b6128c485828601612845565b90969095509350505050565b6000806000606084860312156128e557600080fd5b6128ee846127ff565b92506128fc602085016127ff565b9150604084013590509250925092565b634e487b7160e01b600052604160045260246000fd5b600067ffffffffffffffff8084111561293d5761293d61290c565b604051601f8501601f19908116603f011681019082821181831017156129655761296561290c565b8160405280935085815286868601111561297e57600080fd5b858560208301376000602087830101525050509392505050565b6000602082840312156129aa57600080fd5b813567ffffffffffffffff8111156129c157600080fd5b8201601f810184136129d257600080fd5b6116e384823560208401612922565b6000602080830181845280855180835260408601915060408160051b870101925083870160005b82811015612a3657603f19888603018452612a248583516127a7565b94509285019290850190600101612a08565b5092979650505050505050565b600060208284031215612a5557600080fd5b610df7826127ff565b60008060008060408587031215612a7457600080fd5b843567ffffffffffffffff80821115612a8c57600080fd5b612a9888838901612845565b90965094506020870135915080821115612ab157600080fd5b50612abe87828801612845565b95989497509550505050565b60008060408385031215612add57600080fd5b612ae6836127ff565b915060208301358015158114612afb57600080fd5b809150509250929050565b60008060008060808587031215612b1c57600080fd5b612b25856127ff565b9350612b33602086016127ff565b925060408501359150606085013567ffffffffffffffff811115612b5657600080fd5b8501601f81018713612b6757600080fd5b612b7687823560208401612922565b91505092959194509250565b60008060408385031215612b9557600080fd5b612b9e836127ff565b9150612bac602084016127ff565b90509250929050565b600181811c90821680612bc957607f821691505b60208210811415610ac057634e487b7160e01b600052602260045260246000fd5b8183823760009101908152919050565b60208082526031908201527f4552433732313a207472616e736665722063616c6c6572206973206e6f74206f6040820152701ddb995c881b9bdc88185c1c1c9bdd9959607a1b606082015260800190565b8054600090600181811c9080831680612c6557607f831692505b6020808410821415612c8757634e487b7160e01b600052602260045260246000fd5b818015612c9b5760018114612cac57612cd9565b60ff19861689528489019650612cd9565b60008881526020902060005b86811015612cd15781548b820152908501908301612cb8565b505084890196505b50505050505092915050565b6000610df78284612c4b565b6000612cfd8287612c4b565b621f0adf60ea1b808252612d146003830188612c4b565b91508082528551612d2c816003850160208a0161277b565b60039201918201528351612d4781600684016020880161277b565b016006019695505050505050565b634e487b7160e01b600052603260045260246000fd5b634e487b7160e01b600052601160045260246000fd5b6000600019821415612d9557612d95612d6b565b5060010190565b60208152816020820152818360408301376000818301604090810191909152601f909201601f19160101919050565b82848237601760f91b818401908152600090612dea6001820185612c4b565b9695505050505050565b6000612e008286612c4b565b8451612e1081836020890161277b565b612e1c81830186612c4b565b979650505050505050565b683d913730b6b2911d1160b91b81528351600090612e4c81600985016020890161277b565b7f222c226465736372697074696f6e223a22536861726465756d2075736572206e6009918401918201527f616d65204e4654207c2053484d222c22696d616765223a22646174613a696d6160298201527119d94bdcdd99cade1b5b0ed8985cd94d8d0b60721b60498201528451612eca81605b84016020890161277b565b6b1116113632b733ba34111d1160a11b605b92909101918201528351612ef781606784016020880161277b565b61227d60f01b6067929091019182015260690195945050505050565b7f646174613a6170706c69636174696f6e2f6a736f6e3b6261736536342c000000815260008251612f4b81601d85016020870161277b565b91909101601d0192915050565b60008251612f6a81846020870161277b565b9190910192915050565b60008351612f8681846020880161277b565b835190830190612f9a81836020880161277b565b01949350505050565b604081526000612fb660408301856127a7565b8281036020840152612fc881856127a7565b95945050505050565b600082821015612fe357612fe3612d6b565b500390565b60008219821115612ffb57612ffb612d6b565b500190565b600081600019048311821515161561301a5761301a612d6b565b500290565b60008161302e5761302e612d6b565b506000190190565b634e487b7160e01b600052601260045260246000fd5b60008261305b5761305b613036565b500490565b60008261306f5761306f613036565b500690565b60608152600061308760608301866127a7565b828103602084015261309981866127a7565b915050826040830152949350505050565b6040815260006130bd60408301856127a7565b905060018060a01b03831660208301529392505050565b60208082526032908201527f4552433732313a207472616e7366657220746f206e6f6e20455243373231526560408201527131b2b4bb32b91034b6b83632b6b2b73a32b960711b606082015260800190565b6001600160a01b0385811682528416602082015260408101839052608060608201819052600090612dea908301846127a7565b60006020828403121561316b57600080fd5b8151610df78161274856fe5265676973746572696e67202573206f6e2074686520636f6e7472616374207769746820746f6b656e49642025640a2d2d2d2d2d2d2d2d2d2d2d2d2d2d2d2d2d2d2d2d2d2d2d2d2d2d2d2d2d2d2d2d2d2d2d2d2d2d2d2d2d2d2d2d2d2d2d2d2d2d2d2d2d2d2d2d2d2d2d2d2d2d2d2d2d2d2d2d2d2d2d2d2d2d2d2d2d2d2d2d2d2d2d2d2d2d2d2d2d2d2d2d2d2d2d2d2d2d2d2d2d2d2d2d2d2d2d2d2d2d2d2d0a4142434445464748494a4b4c4d4e4f505152535455565758595a6162636465666768696a6b6c6d6e6f707172737475767778797a303132333435363738392b2fa2646970667358221220b8f5cf37b676ccecf75af74516cb6a6d5079d7b55f83ba2b018c4d7ddf68be5064736f6c634300080a00333c73766720786d6c6e733d22687474703a2f2f7777772e77332e6f72672f323030302f737667222077696474683d2232383022206865696768743d22323830222066696c6c3d226e6f6e65223e3c706174682066696c6c3d2275726c282361292220643d224d302030683238307632383048307a222f3e3c646566733e3c66696c7465722069643d22622220636f6c6f722d696e746572706f6c6174696f6e2d66696c746572733d2273524742222066696c746572556e6974733d227573657253706163654f6e55736522206865696768743d22323830222077696474683d22323830223e3c666544726f70536861646f772064783d2230222064793d22312220737464446576696174696f6e3d22322220666c6f6f642d6f7061636974793d222e323235222077696474683d223230302522206865696768743d2232303025222f3e3c2f66696c7465723e3c2f646566733e3c73766720783d2231352220793d223135222077696474683d2231323022206865696768743d22313038222076696577426f783d223020302031323020313038222066696c6c3d226e6f6e652220786d6c6e733d22687474703a2f2f7777772e77332e6f72672f323030302f737667223e3c7061746820643d224d32392e343335382037372e323838384c31362e3732313320313030483130332e3237394c39302e353634332037372e323838384832392e343335385a222066696c6c3d227768697465222f3e3c7061746820643d224d36302032322e373131324c34372e3238353620304c342037372e323838394832392e343335384c36302032322e373131325a222066696c6c3d227768697465222f3e3c7061746820643d224d39302e353634322037372e32383839483131364c37322e37313435202d332e3035313736652d30354c36302032322e373131314c39302e353634322037372e323838395a222066696c6c3d227768697465222f3e3c7061746820643d224d36302037332e333835334336372e363033372037332e333835332037332e373637372036372e303330332037332e373637372035392e313930394337332e373637372035312e333531352036372e363033372034342e393936342036302034342e393936344335322e333936342034342e393936342034362e323332342035312e333531352034362e323332342035392e313930394334362e323332342036372e303330332035322e333936342037332e333835332036302037332e333835335a222066696c6c3d227768697465222f3e3c2f7376673e3c646566733e3c6c696e6561724772616469656e742069643d2261222078313d2230222079313d2230222078323d22323830222079323d2232383022206772616469656e74556e6974733d227573657253706163654f6e557365223e3c73746f702073746f702d636f6c6f723d2223636235656565222f3e3c73746f70206f66667365743d2231222073746f702d636f6c6f723d2223306364376534222073746f702d6f7061636974793d222e3939222f3e3c2f6c696e6561724772616469656e743e3c2f646566733e3c7465787420783d2233322e352220793d223233312220666f6e742d73697a653d223237222066696c6c3d2223666666222066696c7465723d2275726c282362292220666f6e742d66616d696c793d22506c7573204a616b617274612053616e732c44656a6156752053616e732c4e6f746f20436f6c6f7220456d6f6a692c4170706c6520436f6c6f7220456d6f6a692c73616e732d73657269662220666f6e742d7765696768743d22626f6c64223e576562332075736572206e616d65204e4654206f6e20736861726465756d207c2053484d",
  "linkReferences": {},
  "deployedLinkReferences": {}
}